:020000040000FA
:100000000C944D060C9475060C9475060C947506AC
:100010000C9475060C9475060C9475060C940B12D2
:100020000C9475060C9475060C9475060C94750664
:100030000C9475060C9475060C9475060C94750654
:100040000C94BF120C9475060C948D120C946712CC
:100050000C9475060C9475060C9475060C94750634
:100060000C9409130C9475060608205F000000002C
:1000700000000000002F000000000700070000142F
:100080007F147F1400242A7F2A120023130864623D
:1000900000364955225000000503000000001C22D4
:1000A0004100000041221C000014083E0814000812
:1000B000083E0808003E4945453800080808080879
:1000C000007C10384438002010080402003E5149DA
:1000D000453E0000427F40000042615149460021F8
:1000E00041454B31001814127F1000274545453912
:1000F000003C4A494930000171090503003649496D
:10010000493600064949291E00730C7F0C73004CC8
:10011000307C304C007F49494931001414141414C8
:10012000007F103E413E000201510906003249594C
:10013000513E001C227F221C007F1008047F003EDD
:1001400041414122007F4545453A0061261806019C
:10015000007C1211127C007F0101017F007F0909E0
:100160000906007F407F407F003E4141413E004004
:100170003F01017F00603F213F60007F4848300021
:100180000003017F0103003F203F207F0021414900
:100190004D33007E2011087E007F08142241007F2D
:1001A0004878007F007F49494941007F01010103F0
:1001B000007F0608067F003F20203F6000070808F8
:1001C000087F007F0808087F00661909097F00443E
:1001D00028102844AA55AA55AA5500047C5070003E
:1001E00000040201020400404040404000424252EC
:1001F000523C0018247E2418007C20107C0000381B
:1002000044444428007E4A4A3400004C9090907C3C
:10021000002054547840007C04047C0000FC182426
:100220002418007C407C407C003844444438004022
:100230003C04047C00384545493E007C5070000079
:100240000004047C0404003C203C207C0024424A3E
:100250003400007C21117C00007C10284400007CCC
:100260005070007C003854545418007C04040C0076
:10027000007C0810087C003C20203C60001C101012
:100280007C00007C10107C0000402C127E0000637B
:1002900014081463000000FF000000017F4848308C
:1002A000004149492A1C0608205F000000000000A8
:1002B0000000002F000000000700070000147F145A
:1002C0007F1400242A7F2A12002313086462003658
:1002D0004955225000000503000000001C22410087
:1002E000000041221C000014083E08140008083ECB
:1002F0000808000000A060000008080808080000C6
:1003000060600000002010080402003E5149453E94
:100310000000427F400000426151494600214145B2
:100320004B31001814127F10002745454539003C19
:100330004A494930000171090503003649494936E7
:1003400000064949291E00003636000000005636D6
:1003500000000008142241000014141414140000BA
:100360004122140800020151090600324959513E48
:10037000007C1211127C007F49494936003E414100
:100380004122007F4141221C007F49494941007FB1
:1003900009090901003E4149497A007F0808087FA0
:1003A0000000417F4100002040413F01007F0814D0
:1003B0002241007F40404040007F020C027F007FCE
:1003C0000408107F003E4141413E007F09090906B3
:1003D000003E4151215E007F0919294600464949E6
:1003E00049310001017F0101003F4040403F001FB3
:1003F0002040201F003F4038403F00631408146332
:1004000000070870080700615149454300007F411B
:100410004100AA55AA55AA55000041417F00000499
:10042000020102040040404040400000030500007B
:10043000002054545478007F4844443800384444E1
:10044000442000384444487F00385454541800086D
:100450007E0901020018A4A4A47C007F080404788B
:100460000000447D4000004080847D00007F102813
:1004700044000000417F4000007C04180478007CA8
:100480000804047800384444443800FC2424241828
:100490000018242418FC007C080404080048545464
:1004A000542000043F444020003C4040207C001C7D
:1004B0002040201C003C4030403C00442810284490
:1004C000001CA0A0A07C004464544C440000107C9C
:1004D0008200000000FF00000000827C100000008D
:1004E0000609090600000000240027002A00000079
:1004F000000023002600290000000008000201007F
:1005000000030407000000000000000018282D0D63
:1005100000000000000000000000000000000000DB
:1005200000000000000000000000000000000000CB
:1005300000000000000000000000000000000000BB
:1005400000000000000000000000000000000000AB
:10055000000000000000000000000000000000009B
:10056000000000000000000000000000000000008B
:10057000000000000000000000000000000000007B
:10058000000000000000000000000000000000006B
:10059000000000000000000000000000000000005B
:1005A000000000000000000000000000000000004B
:1005B000000000000000000000000000000000003B
:1005C000000000000000000000000000000000002B
:1005D000000000000000000070F8FCFEFEFCF87057
:1005E000000000000000000000000000000000000B
:1005F00000000103030100000000000000000000F3
:1006000000000000000000000080C0C0C0800000AA
:1006100000000000000000000000000000000000DA
:10062000070F1F3F3F1F0F060000000000000000E3
:1006300000000000000000000000000000000000BA
:1006400000000000000000000000000000000000AA
:10065000387CFEFFFFFE7C38000000000000000038
:100660000000000000000000000000010100000088
:10067000000000000000000000000000000080C03A
:10068000E0F0F8F8F8F0F0E0C080000000000000B2
:100690000000C0F0FCFE3F07010303070F1F3FFFF0
:1006A000FFFFFFFCF000000000FCFFFFFFFFC000A9
:1006B000000000000000000007FFFFFFFF3F0000F8
:1006C00000000F3FFFFFFFFFFCF8F0E0E0C080E01C
:1006D000F8FF3F0F030000000000000000010307C7
:1006E000070F1F1F1F0F070301000000000000007D
:1006F0000000000000000080C0E0F0F0E0C000005A
:1007000000000000000000000000000000020707D9
:1007100007FFFFFFFFFFFF000000000000000000D8
:10072000000000000000000000FFFFFFFFFFFF00CF
:1007300000000000000000000000000000000000B9
:1007400000FFFFFFFFFFFF0080808000000000002F
:10075000000000000000000007070F1F3F3F1F0FB1
:10076000070301000000000000000000000080C03E
:10077000E0F0F8F8F0F0E0C0808000000000000039
:100780000000081C3E7F7F3F1F0F0703030183FF0C
:10079000FFFFFFFEFE000000000000000000000060
:1007A0000080C0E0F8FCFFFF7F3F1F070100000052
:1007B00000000080E0F0F8FEDFEFEFE7E3E1E1E0CA
:1007C000E0C0C0C0C080000000001E1F0F0F0F0758
:1007D0000707070707070F0F1F1F0F07030000007A
:1007E0000000000080C0E0E0F0F8F8F8F0F0E0E091
:1007F000C0C080800000000000000003070F1F0F32
:1008000007030181C0F0FFFFFFFFFF3F0000000072
:100810000000000000000E0E0E0F0F0F1F3FFFFF25
:10082000FFF9F0E0C000000000183C7EFFFFFEFC76
:10083000F8F0E0C08000C1FFFFFFFFFF3F000000B5
:1008400000000000000103070F0F0F0F0707070349
:100850000301000000000000000000000000000094
:10086000000080E0F8F8F8F0E00000000000000070
:100870000000000000C0E0F83C1F0703FFFFFFFF7F
:10088000FF000000000000000000F8FCFFE7E3E0CC
:10089000E0E0E0E0FFFFFFFFFFE0E0E0E0E000007D
:1008A0000000030303030303030303C3FFFFFFFF6E
:1008B000FFC383C3C303000000000000000000006A
:1008C0000000010303070F0F0F07030101000000E1
:1008D000000000000000F8F8F8F8F8F8F8F8F8F868
:1008E000F8F87810000000000000000080FFFF070B
:1008F0000181C1C1E1F1E1E1C1810000000000001E
:10090000000000203F3F1F0E070707070F1F3FFF94
:10091000FFFFFFFEF8000000000060F0FCFCFCF8A8
:10092000F0F0E0C0C08080E0FFFF7F3F07000000E4
:100930000000000001010307070F0F0F0F07070357
:100940000101000000000000000000000000008025
:10095000C0E0F0F8F8F8F0F0E0C0C080000000005F
:10096000000000E0F8FCFE7F0F0101038387CFCF7A
:10097000DF8F0701000000000000FFFFFFFFFFB84E
:100980001C1E0E070F1F3F7FFFFFFFFEF800000039
:1009900000000F3FFFFFFFFFFCF8F0E0C0C080E069
:1009A000FFFF3F1F070000000000000000010307D9
:1009B000070F0F0F0F0703030100000000000000E6
:1009C00000000000C0F0F8F8F8F8F8F8F8F8F8F8C7
:1009D000F8F8F8F8783800000000181E1F07030325
:1009E00001010181C1F1F9FD3F0F03010000000089
:1009F0000000000000000080F0FCFEFFFF3F070049
:100A000000000000000000000000000000E0FEFF09
:100A1000FFFFFFFF030000000000000000000000D7
:100A200000000000000F0F0F070707030000000081
:100A30000000000000000000000000000080E0F066
:100A4000F8F8F8F8F8F8F8F8F0E0C08000000000D6
:100A50000000F0FCFFFFE7C1C18181818183C3FFFA
:100A6000FF7F3F0F00000000000003CFFFFF7F3F2C
:100A70003F3F3F3F3F3F7F7FFFFFFEF8E00000002A
:100A80000000FFFFFFFFF8F0E0E0C0C0C0C0C0E022
:100A9000E0FB7F1F070000000000000307070F0FA7
:100AA0000F0F1F1F0F0F07030100000000000000C1
:100AB000000000000080C0E0F0F0F8F8F8F0E0E09E
:100AC000C08000000000000000C0F8FEFFFF8701AA
:100AD000010103070F1F7FFFFFFFFEFCE000000086
:100AE00000031F7FFFFFFFFEFCF8F070383C1ECFB5
:100AF000FFFFFFFF3F000000000000E0F0F9FDFBFA
:100B0000F1F0E0C0C0E0FCFF7F1F0F01000000001B
:100B10000000000001030307070F0F0F0703010088
:100B200000000000000000000C102D0D00000080EF
:100B30008080808080000000000001030303030325
:100B400003010000000000000000000000000000A1
:100B50000000000000C0C00000000000000002868D
:100B60008686868686020000000081C3C3C3C3C395
:100B7000C381000000FC7A0606060606067AFC0021
:100B8000007EBCC0C0C0C0C0C0BC7E000000000071
:100B9000000000000078FC000000000000000000E1
:100BA000003C7E000000028686868686867AFC00EF
:100BB000007EBDC3C3C3C3C3C3810000000002865F
:100BC00086868686867AFC00000081C3C3C3C3C3C1
:100BD000C3BD7E0000FC7880808080808078FC002F
:100BE0000000010303030303033D7E0000FC7A863B
:100BF0008686868686020000000081C3C3C3C3C305
:100C0000C3BD7E0000FC7A8686868686860200004A
:100C1000007EBDC3C3C3C3C3C3BD7E0000000206C4
:100C200006060606067AFC00000000000000000030
:100C3000003C7E0000FC7A8686868686867AFC00EA
:100C4000007EBDC3C3C3C3C3C3BD7E0000FC7A86A0
:100C500086868686867AFC00000081C3C3C3C3C330
:100C6000C3BD7E0001020408102040800102040878
:100C700010200102040810200000000025002800B8
:100C80002B0004040404040404040202020202020D
:100C90000303030303030200281411241FBECFEF34
:100CA000D8E0DEBFCDBF27E0ACE8B1E001C01D92C7
:100CB000A133B207E1F711E0A0E0B1E0E8E0F0E332
:100CC00002C005900D92AC38B107D9F716E0CDE41B
:100CD000D6E004C02197FE010E94F517CC34D1075D
:100CE000C9F70E9478140C9402180C940000803804
:100CF0009105E8F460347105D0F4FB0123E0F6952A
:100D0000E7952A95E1F7F695FE2FEE27F795E795FB
:100D1000E80FF91FEA5DFC4F6770772721E030E0AC
:100D200001C0220F6A95EAF78385822B8387089595
:100D300080389105F0F460347105D8F4FB0123E0AC
:100D4000F695E7952A95E1F7F695FE2FEE27F795AC
:100D5000E795E80FF91FEA5DFC4F6770772781E0A0
:100D600090E001C0880F6A95EAF780959385892302
:100D700083870895A6E2B3E015969C938E9314970B
:100D8000FC01249116962C9316973196E4911796B0
:100D9000EC931797FC013296E4911896EC93189710
:100DA0000396FC01849119968C9319971A961C92BC
:100DB0000895CF93DF931F92CDB7DEB750917C009B
:100DC00040917A0030917B0028B197B180E4809304
:100DD0007C0084E880937A0010927B004098389AD7
:100DE0003898419A80917A00806480937A0061E01B
:100DF00080917A0086FF04C088B1862788B9F8CF31
:100E00008091780060917900698350937C004093D1
:100E10007A0030937B0028B997B9817090E00F90E9
:100E2000DF91CF910895CF93DF930E94D906EC0113
:100E30000E94D906880F991F8C2B9D2B813091051C
:100E400039F0029791F781E090E0DF91CF9108951A
:100E500090E080E0FACFCF93DF930E941307EC017C
:100E60000E941307880F991F8C2B9D2B81309105B1
:100E700039F0029791F781E090E0DF91CF910895EA
:100E800090E080E0FACFAF92BF92CF92DF92EF92E4
:100E9000FF920F931F93CF93DF936C017B018B0124
:100EA000040F151FEB015E01AE18BF08C017D10774
:100EB00059F06991D601ED91FC910190F081E02DFE
:100EC000C6010995892B79F7C501DF91CF911F9153
:100ED0000F91FF90EF90DF90CF90BF90AF9008956B
:100EE00008950895FC01538D448D252F30E0842F03
:100EF00090E0821B930B541710F0CF960895019742
:100F00000895FC01918D828D981761F0A28DAE0F2E
:100F1000BF2FB11D5D968C91928D9F5F9F73928FB5
:100F200090E008958FEF9FEF0895FC01918D828DE1
:100F3000981731F0828DE80FF11D858D90E00895AE
:100F40008FEF9FEF0895FC01918D228D892F90E006
:100F5000805C9F4F821B91098F739927089581E7C9
:100F600092E00E94A30721E0892B09F420E0822F60
:100F7000089580E090E0892B29F00E94AF0781114D
:100F80000C9400000895FC01A48DA80FB92FB11D89
:100F9000A35ABF4F2C91848D90E001968F739927AF
:100FA000848FA689B7892C93A089B1898C9183708D
:100FB00080648C93938D848D981306C00288F38986
:100FC000E02D80818F7D80830895EF92FF920F93B3
:100FD0001F93CF93DF93EC0181E0888F9B8D8C8DE5
:100FE00098131AC0E889F989808185FF15C09FB7D9
:100FF000F894EE89FF896083E889F989808183709C
:10100000806480839FBF81E090E0DF91CF911F914A
:101010000F91FF90EF900895F62E0B8D10E00F5F6B
:101020001F4F0F731127E02E8C8D8E110CC00FB641
:1010300007FCFACFE889F989808185FFF5CFCE01D9
:101040000E94C307F1CFEB8DEC0FFD2FF11DE35A8A
:10105000FF4FF0829FB7F8940B8FEA89FB8980815C
:101060008062CFCFCF93DF93EC01888D8823B9F0D6
:10107000AA89BB89E889F9898C9185FD03C08081A3
:1010800086FD0DC00FB607FCF7CF8C9185FFF2CF20
:10109000808185FFEDCFCE010E94C307E9CFDF91AC
:1010A000CF910895833081F028F4813099F0823017
:1010B000A9F008958730A9F08830C9F08430B1F4E0
:1010C000809180008F7D03C0809180008F77809316
:1010D0008000089584B58F7784BD089584B58F7D91
:1010E000FBCF8091B0008F778093B00008958091FE
:1010F000B0008F7DF9CFCF93DF93282F30E0F90137
:10110000E850FB4F8491F901EC59F34FD491F90168
:10111000EE57F34FC491CC23A1F081110E945208E5
:10112000EC2FF0E0EE0FFF1FE251FB4FA591B491C1
:10113000EC91ED2381E090E009F480E0DF91CF9124
:10114000089580E090E0FACF1F93CF93DF93282F8C
:1011500030E0F901E850FB4F8491F901EC59F34F6D
:10116000D491F901EE57F34FC491CC23A9F0162F77
:1011700081110E945208EC2FF0E0EE0FFF1FE8589B
:10118000F34FA591B4918FB7F894EC91111108C069
:10119000D095DE23DC938FBFDF91CF911F9108950F
:1011A000DE2BF8CF9091050189130BC0E6E9FCE036
:1011B000E4919FEF90930501E13049F028F0E2308F
:1011C00061F060E00C94A40810926E00FACF909148
:1011D0006F009D7F90936F00F4CF909170009D7F82
:1011E0009093700091E09093B0009091B100987F3F
:1011F00094609093B1001092B300E3CFCF93DF934C
:1012000090E0FC01EC59F34F24918E57934FFC0171
:1012100084918823D1F090E0880F991FFC01EC5154
:10122000FB4FA591B491FC01E858F34FC591D491BF
:1012300061110EC09FB7F8948C91E22FE0958E2338
:101240008C932881E223E8839FBFDF91CF9108959B
:101250008FB7F894EC91E22BEC938FBFF6CFCF933E
:10126000DF93C6E2D3E061E089810E94FE0860E07E
:1012700089810E94A40861E088810E94A40861E03D
:1012800089810E94A40860E08981DF91CF910C944C
:10129000FE0860E0809127030E94FE0861E08091D3
:1012A00026030E94A408809127030E947B080197CF
:1012B000D1F360E0809126030C94A4088F929F9252
:1012C000AF92BF92CF92DF92EF92FF92CF936C01D9
:1012D00080910501863069F08F3F09F458C0CF91A5
:1012E000FF90EF90DF90CF90BF90AF909F908F9046
:1012F0000895E6E9FCE0C491C7FDF1CF61E086E026
:101300000E94FE08CC2319F0C23009F0AFC046019C
:10131000B12CA12C60E072E18AE790E0A501960172
:101320000E94C21769017A0162E17AE780E090E0E9
:10133000A50194010E94C2172150310941095109A8
:10134000CC2309F4E6C096E02F3F31054105510555
:1013500079F074F08AE0F594E794D794C7948A956D
:10136000D1F7A7019601215031094109510997E0B0
:101370008091B100887F892B8093B100C13009F43E
:10138000A0C0C23009F4B2C0C111A9CFDBC086E051
:1013900080930501E6E9FCE0C491CF3F09F49FCFBB
:1013A000C13021F150F0C23009F43EC0C7FD97CFE3
:1013B00061E086E00E94FE08A7CF14BC15BC84B58E
:1013C000826084BD85B5816085BDE8E8FCE0E4917C
:1013D000F0E0EE0FFF1FE858F34F85919491EAE695
:1013E000FCE0E491E0936402C0E088CF10928000BA
:1013F00010928100809181008860809381008091AB
:101400008100816080938100E8E8FCE0E491F0E0F5
:10141000EE0FFF1FE858F34F85919491EAE6FCE048
:10142000E491E09363026ACF1092B0001092B10091
:101430008091B00082608093B0008091B1008160A3
:101440008093B100E8E8FCE0E491F0E0EE0FFF1FCC
:10145000E858F34F859194919093620280936102D2
:10146000EAE6FCE0E491E093600248CFF12CE12C45
:1014700060E072E18AE790E0A70196010E94C2173E
:10148000215031094109510991E02115310581E0CF
:10149000480751056CF068E478EE81E090E0A70120
:1014A00096010E94C217215031094109510993E068
:1014B000C13009F063CF80918100887F892B8093B0
:1014C000810030938900209388008FEF9FEFDC012B
:1014D0008093690290936A02A0936B02B0936C02AE
:1014E00080916F00826080936F00F9CE2093B300EB
:1014F0008FEF9FEFDC018093650290936602A093CB
:101500006702B093680280917000826080937000DF
:10151000E6CE94E02F3F31054105510579F074F096
:101520009AE0F594E794D794C7949A95D1F7A701D8
:101530009601215031094109510995E085B5887F0F
:10154000892B85BD27BD8FEF9FEFDC0180936D0256
:1015500090936E02A0936F02B093700280916E0020
:10156000826080936E00BBCE3FB7F89480914502B5
:1015700090914602A0914702B091480226B5A89BDF
:1015800005C02F3F19F00196A11DB11D3FBFBA2F15
:10159000A92F982F8827BC01CD01620F711D811DD5
:1015A000911D42E0660F771F881F991F4A95D1F75A
:1015B00008958F929F92AF92BF92CF92DF92EF9257
:1015C000FF924B015C010E94B40A6B017C010E94F6
:1015D000B40A6C197D098E099F09683E7340810524
:1015E0009105A8F321E0821A9108A108B10888EEBC
:1015F000C80E83E0D81EE11CF11C81149104A104E3
:10160000B10429F7FF90EF90DF90CF90BF90AF909B
:101610009F908F9008952FB7F89460914102709138
:10162000420280914302909144022FBF089520917D
:10163000F601260F3327331F21323105ECF42091B8
:101640001A02FC0190E080E0243069F082E0089505
:10165000A091F6012191AC014A525E4FA40FB52F23
:10166000B11D2C930196861798F38091F601680FAF
:101670006093F60180E0089581E0089510921A02C7
:1016800081E080931C0210921B0261E082E10E94C3
:10169000A40861E083E10E94A408E9EBF0E0808106
:1016A0008E7F808380818D7F808388E48093B800E3
:1016B00085E48093BC000895CF93DF9391E09093ED
:1016C000D5018823B9F0C091B800D091BA008091BB
:1016D000BC008A7B8093BC0060E082E10E94A40889
:1016E00060E083E10E94A4080E943E0BD093BA0000
:1016F000C093B800DF91CF9108950895E091500212
:1017000080914F02E81730F4F0E0E055FE4F808101
:1017100090E008958FEF9FEF08959091500280918F
:101720004F022FEF3FEF981748F4E92FF0E0E05514
:10173000FE4F208130E09F5F90935002C9010895D1
:1017400080914F0290915002891B990B0895CF927E
:10175000DF92EF92FF920F931F93CF93DF937C0161
:10176000CB018A012091AF01222389F0EB016B01AB
:10177000C40ED51ECC15DD0569F06991D701ED9138
:10178000FC910190F081E02DC7010995F3CF642F02
:101790000E94170BC801DF91CF911F910F91FF900D
:1017A000EF90DF90CF900895CF93DF931F92CDB746
:1017B000DEB769832091AF012223F9F020914D0219
:1017C000203258F021E030E0FC013383228390E0A6
:1017D00080E00F90DF91CF91089580914E02E82F25
:1017E000F0E0E157FE4F998190838F5F80934E0226
:1017F00080934D0281E090E0ECCF61E0CE01019654
:101800000E94170BF7CFCF92DF92EF92FF920F93C8
:101810001F93CF93DF93FC01C48121E02093AF019C
:10182000C0938E0110924E0210924D028385682B58
:101830008EE093E00E94D40BD0914D02D13208F09B
:1018400092C00E94B40A6B017C0180911A0281113E
:1018500065C082E080931A0281E080931C028FEFC2
:101860008093190210923E02D0933D02AFE8B1E09E
:10187000EDE1F2E080E0D81385C010923F02809144
:101880003F02CC0FC82BC0933F0280911B028130D6
:1018900009F07CC010921B020E94B40A6B017C010B
:1018A00080913F028093BB008091D1019091D20141
:1018B000A091D301B091D401892B8A2B8B2B99F065
:1018C0000E94B40A0091D1011091D2012091D3015C
:1018D0003091D4016C197D098E099F0906171707ED
:1018E00028073907E0F18091BC0083FDD9CF85EC52
:1018F0008093BC000E94B40A6B017C0180911A02A3
:10190000823009F445C0809119028F3F61F18091C6
:101910001902803241F18091190225C08091D101D4
:101920009091D201A091D301B091D401892B8A2B3F
:101930008B2B09F48ACF0E94B40A0091D101109137
:10194000D2012091D3013091D4016C197D098E0907
:101950009F09061717072807390708F076CF8091E7
:10196000D0010E945C0B10924E0210924D02109218
:10197000AF01DF91CF911F910F91FF90EF90DF901A
:10198000CF9008959D9191938F5F75CF85EEB0CFE5
:101990008091D1019091D201A091D301B091D40155
:1019A000892B8A2B8B2B09F4A9CF0E94B40A0091B2
:1019B000D1011091D2012091D3013091D4016C1941
:1019C0007D098E099F09061717072807390708F0B0
:1019D00095CFC5CF089590E080E00895FC01019077
:1019E0000020E9F73197AF01481B590BBC018AE190
:1019F00093E00C9443078F929F92AF92BF920F9304
:101A00001F93CF93DF93CDB7DEB7A1970FB6F894AE
:101A1000DEBF0FBECDBF19A2423008F44AE08E01EE
:101A20000F5D1F4F842E912CB12CA12CA501940188
:101A30000E94A017E62FB901CA01EA30F4F4E05D74
:101A4000D801EE938D01232B242B252B79F790E0E1
:101A500080E0109719F0CD010E94EE0CA1960FB610
:101A6000F894DEBF0FBECDBFDF91CF911F910F91D4
:101A7000BF90AF909F908F900895E95CE1CF2F9237
:101A80003F924F925F926F927F928F929F92AF920E
:101A9000BF92CF92DF92EF92FF920F931F93CF935B
:101AA000DF93CDB7DEB728970FB6F894DEBF0FBE31
:101AB000CDBF78876F835C834B83FC01019000204E
:101AC000E9F731971F01281A390A6F30774209F078
:101AD00083C040912C03429D9001439D300D112401
:101AE00040E850E0421B530B58874F839A83898309
:101AF000712C612C621473040CF012C190912C03B0
:101B0000969D7001979DF00C11242F813885E20E6F
:101B1000F31EE981FA812191FA83E98380912D03F3
:101B200030912E03231B330B482F477009F08EC0D2
:101B3000869586958695899FC0011124829FA00174
:101B4000839F500D929F500D11249A012C5F3F4F9F
:101B50003E832D834B805C80B12CA12C80912D0382
:101B60008695869586958A151B0409F00CF4D4C0D9
:101B70008D809E80870120912C03C8018E199F09BA
:101B80002817190609F00CF45AC0D12CC12C8091E9
:101B90002C038A9DF0018B9DF00D1124CF01880D3F
:101BA000991DE0912A03F0912B03E80FF91FE491AE
:101BB00080913003B601640D751DF0E00C2C02C05D
:101BC000F595E7950A94E2F7E0FF26C0811126C05B
:101BD000C8010E94770625C0EF81F885EE30F742F4
:101BE00009F084CF40912C03429D9001439D300D1C
:101BF000112440E850E0421B530B5A83498357FF9E
:101C000004C04F5F5F4F5A834983E981FA81F5959C
:101C1000E795F887EF836ACF8111DACFC8010E9478
:101C200098063FEFC31AD30A48E0C416D10409F05E
:101C3000AECF0F5F1F4F5FEF851A950A9CCF8FEFD6
:101C4000A81AB80A98E0490E511C88CF989FC00185
:101C5000112443E0959587954A95E1F7829F6001AD
:101C6000839FD00C929FD00C1124E4E0CE0ED11CA7
:101C7000E0912A03F0912B03EC0DFD1DE4914E2E13
:101C8000512C870157E0A52EB12C20912C03C801BF
:101C90008E199F092817190609F00CF43DC0912CE4
:101CA000812C80912D038815190499F194F180916C
:101CB00030036B817C81680D791D92010A2C02C072
:101CC000359527950A94E2F720FF06C0811106C0DA
:101CD000C8010E94770605C08111FACFC8010E9491
:101CE0009806F1E0AF1AB108B7FE0FC02FEFC21A85
:101CF000D20AE0912A03F0912B03EC0DFD1DE49133
:101D00004E2E512C87E0A82EB12C3FEF831A930A58
:101D1000C8CF0F5F1F4FB9CF4FEF641A740AEACED6
:101D200028960FB6F894DEBF0FBECDBFDF91CF91DE
:101D30001F910F91FF90EF90DF90CF90BF90AF90E9
:101D40009F908F907F906F905F904F903F902F90DB
:101D500008953F924F925F926F927F928F929F92DF
:101D6000AF92BF92CF92DF92EF92FF920F931F93A9
:101D7000CF93DF93CDB7DEB7E8970FB6F894DEBF09
:101D80000FBECDBF2B013C015EAB4DAB38AF2FABCF
:101D9000411451046104710419F580E389831A82A6
:101DA0004FA958AD6DA97EA9CE0101960E943F0DA5
:101DB000E8960FB6F894DEBF0FBECDBFDF91CF918E
:101DC0001F910F91FF90EF90DF90CF90BF90AF9059
:101DD0009F908F907F906F905F904F903F9008956D
:101DE000312C77FE0AC07094609450944094411C4A
:101DF000511C611C711C332433947E012CE1E20ED2
:101E0000F11C67018AE0882E912CA12CB12CC30112
:101E1000B201A50194010E94C21720E3260FD6014A
:101E20002D936D018D010E191F09A3019201261B2F
:101E3000370B480B590BCA01B901A50194010E9447
:101E4000C21729013A014114510461047104F9F6E1
:101E5000F701E00FF11F1082332011F08DE289832A
:101E6000E32DF0E0CF01800F911F0E0D1F1D41E00B
:101E700050E04C0F5D1FE40FF51FE016F10629F04E
:101E8000D8012E918D012193F8CFE1E0F0E0EC0F25
:101E9000FD1FE80FF91F108283CFE1E3F3E080E03C
:101EA00094E0DF019C011D9221503040E1F708953C
:101EB0000F931F93CF93DF93082F162FD42FC8E0D3
:101EC0006D2F661F6627661F802F0E94A408DD0FF6
:101ED00061E0812F0E94A40860E0812F0E94A40885
:101EE000C15071F7DF91CF911F910F9108951F930A
:101EF000CF93DF93182FC6E2D3E061E089810E947F
:101F0000FE08412F68818981DF91CF911F910C9448
:101F1000580FCF93DF93C6E2D3E061E089810E943E
:101F2000FE0861E089810E94A40861E088810E9426
:101F3000A40860E089810E94A40860E088810E9472
:101F4000A40848E768818981DF91CF910C94580FEC
:101F5000CF9390912903992341F194EE9093BC0083
:101F60009091BC0097FFFCCF98E79093BB0094EC56
:101F70009093BC009091BC0097FFFCCF1092BB00E7
:101F800094EC9093BC009091BC0097FFFCCF8093A1
:101F9000BB0084EC8093BC008091BC0087FFFCCF29
:101FA00084E98093BC00CF910895C82F0E94890FC7
:101FB0000E94490980E00E94770F0E9449098C2FF6
:101FC0000E94770F0E944909CF910C942F091F930B
:101FD000CF93DF93F89481E20E94A80F80E00E94E3
:101FE000A80F8FE70E94A80F82E20E94A80F80E04E
:101FF0000E94A80F87E00E94A80F809129038823E0
:10200000D9F184EE8093BC008091BC0087FFFCCFA7
:1020100088E78093BB0084EC8093BC008091BC0077
:1020200087FFFCCF80E48093BB0084EC8093BC00EE
:102030008091BC0087FFFCCFC1E3D3E014EC899111
:1020400090912903992311F18093BB001093BC0058
:102050008091BC0087FFFCCF87E0C133D80779F7B8
:10206000809129038823B9F084E98093BC00789497
:10207000DF91CF911F9108950E94890F0E94490915
:1020800080E40E94770F0E944909D6CF0E94770F03
:102090000E944909E1CF0E942F09E9CF0F931F93B6
:1020A000CF938C01C62F0E94030C6C2F6460C80173
:1020B0000E94030C6C2F6B7FC8010E94030C83EC01
:1020C00090E00197F1F7CF911F910F9108950F9331
:1020D0001F93CF93DF938C01D62FC42F607F642B87
:1020E0000E944E1080E1D89FB00111246C2BC801D2
:1020F000DF91CF911F910F910C944E10CF93DF93EE
:10210000CDB7DEB728970FB6F894DEBF0FBECDBFB0
:1021100098E0E6E0F1E0DE01119601900D929A95CB
:10212000E1F790912203961708F46FEF262F30E025
:10213000220F331F41E050E04C0F5D1F240F351F6D
:10214000F9016081680F606840E08AE193E02896B9
:102150000FB6F894DEBF0FBECDBFDF91CF910C94C8
:10216000671040E061E08AE193E00E9467108BE332
:102170009FE10197F1F7089541E00E94671081E027
:1021800090E00895CF92DF92EF92FF926B017C0175
:1021900041E06DE28AE193E00E94671066277727AD
:1021A000CB016C197D098E099F094AE00E94FB0C46
:1021B0000196FF90EF90DF90CF900895BF92CF925D
:1021C000DF92EF92FF920F931F93CF93DF93CDB7E0
:1021D000DEB76B970FB6F894DEBF0FBECDBF0E947F
:1021E0004D0F10910101112309F466C088E690E0BB
:1021F0000E94BA0648E050E06EE077E28EE391E09C
:102200000E943F0D8CE095E00E94BA0660910201A9
:1022100070E090E080E029E130E04EE057E20E947B
:10222000A90E0E94E70F03E082E0B82E88E00E942A
:102230007B08892BD9F30E940B0B6B0170935D0215
:1022400060935C0288E00E947B08892BD9F70E948A
:102250000B0B0D2C000CEE08FF086C197D098E0984
:102260009F09603D77408105910520F580918C01A3
:1022700090918D0180FF1BC0B09202010196909356
:102280008D0180938C016091020170E090E080E00C
:1022900029E130E04EE057E20E94A90E0E94E70FCC
:1022A00062E370E080E090E00E94D90ABFCF009323
:1022B0000201E4CF0E944D0F86EA92E00E94BA0626
:1022C00050E040E070E060E081E591E00E943F0D69
:1022D0008CE095E00E94BA0680E389831A8249E186
:1022E00050E06EE077E2CE0101960E943F0D0E9421
:1022F000E70F112309F447C060E084E00E947E10DC
:1023000089E591E00E94EE0C61E083E00E947E107E
:1023100082E691E00E94EE0C0E94B11010E0F12CD8
:10232000E12C809102018E151F0459F154F160E0F7
:10233000812F0E947E108DE691E00E94EE0C60E0FD
:1023400082E0810F0E947E106091000170E090E0B9
:1023500080E04AE00E94FB0C60E083E0810F0E9475
:102360007E1041E06AE38AE193E00E946710809169
:1023700000018F5F809300018FEFE81AF80A1A5F5F
:10238000D0CF109201016B960FB6F894DEBF0FBE4E
:10239000CDBFDF91CF911F910F91FF90EF90DF9014
:1023A000CF90BF90089585ED8093BC008091D101BE
:1023B0009091D201A091D301B091D4010796A11DB3
:1023C000B11D23E0B695A795979587952A95D1F7E6
:1023D0002091BC0024FD03C010921A020895409180
:1023E000D1015091D2016091D3017091D401452B5C
:1023F000462B472B69F30097A105B10541F02AE26E
:102400002A95F1F700C00197A109B109E1CF8091A8
:10241000D0010C945C0B1F920F920FB60F921124F7
:102420002F933F934F935F936F937F938F939F93DC
:10243000AF93BF93EF93FF938091650290916602F3
:10244000A0916702B0916802892B8A2B8B2BD1F166
:1024500090916002E0916102F0916202808189278F
:1024600080838091650290916602A0916702B0918D
:102470006802181619061A061B069CF4809165025C
:1024800090916602A0916702B09168020197A1093C
:10249000B1098093650290936602A0936702B0939E
:1024A0006802FF91EF91BF91AF919F918F917F91C2
:1024B0006F915F914F913F912F910F900FBE0F90B1
:1024C0001F901895809105010E94D208EACF1F92B3
:1024D0000F920FB60F9211242F933F934F935F9358
:1024E0006F937F938F939F93AF93BF93EF93FF93DC
:1024F00081E792E00E94C307FF91EF91BF91AF91F6
:102500009F918F917F916F915F914F913F912F910B
:102510000F900FBE0F901F9018951F920F920FB63D
:102520000F9211242F938F939F93EF93FF93E0913A
:102530008102F09182028081E0918702F09188020D
:1025400082FD1BC0908180918A028F5F8F732091E2
:102550008B02821741F0E0918A02F0E0EF58FD4FC4
:10256000958F80938A02FF91EF919F918F912F9188
:102570000F900FBE0F901F9018958081F4CF1F927F
:102580000F920FB60F9211242F933F938F939F9327
:10259000AF93BF938091410290914202A091430278
:1025A000B09144023091400223E0230F2D3758F5BB
:1025B0000196A11DB11D209340028093410290938A
:1025C0004202A0934302B09344028091450290914D
:1025D0004602A0914702B09148020196A11DB11D8B
:1025E0008093450290934602A0934702B09348021D
:1025F000BF91AF919F918F913F912F910F900FBEFF
:102600000F901F90189526E8230F0296A11DB11D6B
:10261000D2CF1F920F920FB60F9211242F933F9398
:102620004F935F936F937F938F939F93AF93BF93DA
:10263000EF93FF938091B900887F803609F44AC0F8
:10264000F0F5883209F4A7C018F5803109F49BC071
:10265000B8F4882309F4F9C0883009F494C0FF91D4
:10266000EF91BF91AF919F918F917F916F915F910A
:102670004F913F912F910F900FBE0F901F90189583
:10268000883109F488C0803251F78093190214C050
:10269000803409F49DC040F48033B9F38833F9F6EF
:1026A0008093190285ECB0C0803509F485C0883567
:1026B00009F496C0883499F60E94D311D0CF883996
:1026C00009F48CC038F5883729F050F4883611F0B9
:1026D000803729F683E080931A021092180257C0BF
:1026E000883809F47BC0803919F0803809F0B7CFF9
:1026F00080911802803208F071C0E091180281E0E8
:102700008E0F809318028091BB00F0E0E850FE4FDE
:1027100080833DC0803B39F0E0F4803A09F479C011
:10272000883A09F09CCF84E080931A021092F70156
:102730001092F601E0914B02F0914C0209958091C4
:10274000F60181110FC081E08093F6011092D6014D
:1027500009C0803C09F4A6CF883C09F4A3CF883B8C
:1027600009F07DCFE091F70181E08E0F8093F701B2
:10277000F0E0EA52FE4F80818093BB009091F70118
:102780008091F60129C080913F028093BB0085ECC7
:102790008093BC0064CF90913E0280913D029817D7
:1027A00058F5E0913E0281E08E0F80933E02F0E00A
:1027B000E35EFD4F8081E9CFE0913E0281E08E0F24
:1027C00080933E028091BB00F0E0E35EFD4F80838A
:1027D00090913E0280913D029817C8F285E8D8CFCB
:1027E000E0913E0281E08E0F80933E028091BB001B
:1027F000F0E0E35EFD4F808380911C0281115CCF8D
:1028000081E080931B0284EA8093BC0010921A023C
:1028100026CF85EC8093BC0010921A02809118029A
:10282000803230F4E0911802F0E0E850FE4F108260
:102830006091180270E0E0914902F0914A0288EF3D
:1028400091E00995109218020ACF1092190234CF24
:10285000E1E7F2E01382128288EE93E0A0E0B0E0BC
:1028600084839583A683B78322E131E0318320837B
:1028700025EC30E03587248724EC30E03787268745
:1028800020EC30E0318B208B21EC30E0338B228B3D
:1028900022EC30E0358B248B26EC30E0378B268B16
:1028A000118E128E138E148EEEE0F3E013821282DC
:1028B00084839583A683B78384E291E091838083A8
:1028C000E6E2F3E082E1818383E180838FEF82831C
:1028D000EAE1F3E01382128286E391E09183808340
:1028E0008FE3848380E1818782E082871386089565
:1028F000789484B5826084BD84B5816084BD85B5DB
:10290000826085BD85B5816085BD80916E008160E6
:1029100080936E001092810080918100826080938C
:10292000810080918100816080938100809180008E
:102930008160809380008091B10084608093B100B9
:102940008091B00081608093B00080917A008460B3
:1029500080937A0080917A00826080937A008091DF
:102960007A00816080937A0080917A0080688093F9
:102970007A001092C100E0918102F091820282E01F
:102980008083E0917D02F0917E021082E0917F02CF
:10299000F09180028FEC808310928902E091850291
:1029A000F091860286E08083E0918302F0918402B8
:1029B000808180618083E0918302F0918402808134
:1029C00088608083E0918302F09184028081806836
:1029D0008083E0918302F091840280818F7D8083E7
:1029E000809128038F3FF1F061E00E94FE0861E0D2
:1029F000809128030E94A40861E070E080E090E0EC
:102A00000E94D90A60E0809128030E94A4086AE02D
:102A100070E080E090E00E94D90A61E08091280394
:102A20000E94A4088091260390912703923109F017
:102A300018C2833109F015C281E08093290361E057
:102A400082E10E94A40861E083E10E94A4088091D1
:102A5000B9008E7F8093B9008091B9008D7F8093FB
:102A6000B9008CE08093B80085E08093BC008EEACA
:102A70000E94A80F85ED0E94A80F80E80E94A80F71
:102A800088EA0E94A80F8FE30E94A80F83ED0E949E
:102A9000A80F80E00E94A80F80E40E94A80F8DE894
:102AA0000E94A80F84E10E94A80F80E20E94A80F54
:102AB00080E00E94A80F81EA0E94A80F88EC0E9483
:102AC000A80F8AED0E94A80F82E10E94A80F81E85A
:102AD0000E94A80F8FEC0E94A80F89ED0E94A80FFA
:102AE00081EF0E94A80F8BED0E94A80F80E40E9446
:102AF000A80F84EA0E94A80F86EA0E94A80F8FEA16
:102B00000E94A80F0E944D0F0E94E70F10922B0306
:102B100010922A031092500210924F0210924E020D
:102B200010924D020E943E0B80E797E090934C027A
:102B300080934B0281E797E090934A028093490289
:102B400010921F0380912403823018F098E0909334
:102B50001F038093220362E370E080E090E00E9414
:102B6000D90A609125038AE193E00E94030C68EE84
:102B700073E080E090E00E94D90A60E38AE193E08C
:102B80000E944E10CBE4D6E4CE010197F1F760E34A
:102B90008AE193E00E944E102197F1F760E38AE109
:102BA00093E00E944E1083E592E00197F1F760E216
:102BB0008AE193E00E944E1060911F03606240E042
:102BC0008AE193E00E94671084E08093200340E054
:102BD0006CE08AE193E00E9467100E94B11082E0ED
:102BE0008093210340E066E08AE193E00E94671051
:102BF00040E062E08AE193E00E9467108BE39FE18E
:102C00000197F1F788E08093250360E08AE193E083
:102C10000E94030C0E94DE10812C50E1952EA12C05
:102C2000B12CC12CD12C76010E942B07892B21F0CD
:102C3000C828D928EA28FB2880E7C81687E1D806E3
:102C4000E104F1044CF7B594A79497948794811408
:102C50009104A104B10441F798EEC90E93E0D91E86
:102C6000E11CF11CD0925F02C0925E0288E29BE000
:102C70000E94BA06C0905E02D0905F020D2C000C3C
:102C8000EE08FF0830E020E04FE057E2C701B60150
:102C90000E94A90E0E94E70F8CE095E00E94BA0600
:102CA0000E940B0B8B0170935D0260935C024B01E1
:102CB000072E000CAA08BB0837EE632E77247A94FF
:102CC000661A770A88E00E947B08892B09F479C08C
:102CD00081E080935B020E940B0B681979098A09D5
:102CE0009B0929E130E04EE057E20E94A90E0E94C4
:102CF0000B0BE0915A02F0E0EE0FFF1FEC5AFD4F74
:102D0000660D771D718360830E94E70F0E940B0B95
:102D10001B012C01C0910301D0910401C801BE0127
:102D20000E948C17092E000CAA0BBB0B2816390623
:102D30004A065B0649F088EC90E00E945E09219704
:102D4000D0930401C093030188E00E947B08892B83
:102D500031F464E170E080E090E00E94D90A0E94C2
:102D60000B0B681979098A099B096C157D058E057D
:102D70009F0508F47CC040E054E06FEF70E081E311
:102D800093E00E94FB170E94E70F81E490E00E940D
:102D90005E0968EB7BE080E090E00E94D90A86E063
:102DA0000E94D2080E944D0F0E94DE10E0915A024C
:102DB000F0E0EE0FFF1FEC5AFD4F8FEF9FEF918376
:102DC000808380915B02882309F499C090915A0214
:102DD000E92FF0E0EE0FFF1FEC5AFD4FC081D181CB
:102DE000892F880F890F61E0880F0E947E10CF3FE6
:102DF000DC0709F055C080E791E00E94EE0C80915D
:102E00005A02209102012150330B8217130609F058
:102E10006FC00E94B11060E081E00E947E1085E7E3
:102E200091E00E94EE0C61E083E00E947E1084E855
:102E300091E00E94EE0C80915402909155023091E5
:102E40000201C0915102E4E5F2E020E03217B9F14D
:102E5000419151918417950784F1AC012F5FCA010C
:102E6000F5CF1092290361E00E94FE0800CE0E9477
:102E70000B0B1B012C016091030170910401C8012F
:102E80000E948C17092E000CAA0BBB0B28163906C2
:102E90004A065B0609F416CF86E00E94D20812CFDC
:102EA000BE01DD0F880B990B97FF03C00E94C21073
:102EB000A6CF4AE00E94FB0CA2CFC22FCFCF9093A7
:102EC000530280935202C093510261E08AE00E9453
:102ED0007E106C2F70E06F5F7F4F072E000C880B09
:102EE000990B4AE00E94FB0C90E080E00E940218DF
:102EF0008F5F80935A0210925B020E94DE1080E086
:102F000090E0892B09F4B2CE0E94AF07882309F420
:102F1000ADCE0E940000AACE97FB072E16F40094B7
:102F200007D077FD09D00E94E11707FC05D03EF4D9
:102F3000909581959F4F0895709561957F4F089565
:102F4000A1E21A2EAA1BBB1BFD010DC0AA1FBB1FAD
:102F5000EE1FFF1FA217B307E407F50720F0A21B1F
:102F6000B30BE40BF50B661F771F881F991F1A948C
:102F700069F760957095809590959B01AC01BD01B6
:102F8000CF010895052E97FB1EF400940E94D917D7
:102F900057FD07D00E94A01707FC03D04EF40C94F5
:102FA000D91750954095309521953F4F4F4F5F4F22
:102FB000089590958095709561957F4F8F4F9F4FA5
:102FC0000895AA1BBB1B51E107C0AA1FBB1FA61770
:102FD000B70710F0A61BB70B881F991F5A95A9F7C2
:102FE00080959095BC01CD010895EE0FFF1F0590CF
:102FF000F491E02D0994DC0101C06D9341505040E3
:10300000E0F70895F894FFCF0101022A00FF0000C5
:1030100040001400540000000000E5074307720759
:103020003208A3078107950700000000D40BA70B07
:10303000EB0C7D0BA00B8D0B7E0B00000000BC1079
:103040004307EB0CEA0C526A6B627874636E646A35
:10305000206275686A726A64005441524745543A66
:103060000044415F424F4D422100474554205245A4
:103070004144592100504C00424F4F4D00544845A7
:103080002057494E4E45522049533A00504C415921
:043090004552200085
:107E0000112484B714BE81FFF0D085E080938100F7
:107E100082E08093C00088E18093C10086E0809377
:107E2000C20080E18093C4008EE0C9D0259A86E02C
:107E300020E33CEF91E0309385002093840096BBD3
:107E4000B09BFECF1D9AA8958150A9F7CC24DD24C4
:107E500088248394B5E0AB2EA1E19A2EF3E0BF2EE7
:107E6000A2D0813461F49FD0082FAFD0023811F036
:107E7000013811F484E001C083E08DD089C08234E0
:107E800011F484E103C0853419F485E0A6D080C0E4
:107E9000853579F488D0E82EFF2485D0082F10E0AE
:107EA000102F00270E291F29000F111F8ED06801E7
:107EB0006FC0863521F484E090D080E0DECF843638
:107EC00009F040C070D06FD0082F6DD080E0C81688
:107ED00080E7D80618F4F601B7BEE895C0E0D1E017
:107EE00062D089930C17E1F7F0E0CF16F0E7DF06D8
:107EF00018F0F601B7BEE89568D007B600FCFDCFD4
:107F0000A601A0E0B1E02C9130E011968C91119780
:107F100090E0982F8827822B932B1296FA010C0160
:107F200087BEE89511244E5F5F4FF1E0A038BF0790
:107F300051F7F601A7BEE89507B600FCFDCF97BE46
:107F4000E89526C08437B1F42ED02DD0F82E2BD052
:107F50003CD0F601EF2C8F010F5F1F4F84911BD097
:107F6000EA94F801C1F70894C11CD11CFA94CF0C13
:107F7000D11C0EC0853739F428D08EE10CD085E9AC
:107F80000AD08FE07ACF813511F488E018D01DD067
:107F900080E101D065CF982F8091C00085FFFCCF94
:107FA0009093C60008958091C00087FFFCCF809118
:107FB000C00084FD01C0A8958091C6000895E0E648
:107FC000F0E098E1908380830895EDDF803219F02E
:107FD00088E0F5DFFFCF84E1DECF1F93182FE3DFCA
:107FE0001150E9F7F2DF1F91089580E0E8DFEE27F6
:047FF000FF270994CA
:027FFE00040479
:00000001FF
